:020000040000FA
:040000003DEF03F0DD
:08000800056ED8CF06F0E950A7
:10001000076EEA50086EE150096EE2500A6ED95040
:100020000B6EDA500C6EF350146EF450156EE050F7
:100030000D6E000100500F6E0150106E0250116ED7
:100040000350126E0450136E9DAC2AEF00F09EBC5C
:100050007CEF00F00F50006E1050016E1150026ED8
:100060001250036E1350046E0D50E06E0D8E07504B
:10007000E96E0850EA6E0950E16E0A50E26E0B50CC
:10008000D96E0C50DA6E1450F36E1550F46E0550A4
:1000900006C0D8FF1000F2CF0EF0F29EF76AB00F44
:1000A000F66E000EF7220900F5500EBEF28E120019
:1000B0002C0F0106F2CF0EF0F29EF76ACE0FF66E0D
:1000C000000EF7220900F5500EBEF28E12000C2031
:1000D000763D25660000F2CF0EF0F29EF76AF00F33
:1000E000F66E000EF7220900F5500EBEF28E1200D9
:1000F0000A20763D2566000037C0E9FF38C0EAFFD8
:10010000ECCF03F0ED52EFCFE9FF03C0EAFFEF5071
:10011000036A496E03C04AF09E9C2AEF00F0EA6A27
:10012000630EE96EEF500DE0400E016E006A002E86
:10013000FED7012EFBD7D90E006E002EFED7EF2E74
:10014000F3D7000C6A38F00B006E0F0E831400100A
:10015000836E00008380210E006E002EFED78390F8
:10016000000CF00E956E83840000838000008338BD
:100170000F0B6A6E839000008380100E006E002EBD
:10018000FED7000083380F0B696E8390000E956ECA
:100190006A38006EF00E001600506910016ED3EF41
:1001A00000F08392DED701C069F001BEFBD767A0E3
:1001B000839267B083820000839400008390683844
:1001C000696E0F0E691669C06AF0BCDF68500F0BCC
:1001D000696E69C06AF0B6DF000C000E956E2D0ED8
:1001E000636E9DDF839283948390020E6A6EAADF12
:1001F0004B6A4B5003080DE3036A4B504CDF4C6EC7
:10020000676A4CC068F0CDDF050E636E88DF4B2A4D
:10021000F0D7ADEF03F08E0E006E4CC001F04BC076
:1002200002F0036A015209E102C001F0026A080EFD
:10023000005E015202E1006A08D0D89001BE04D0ED
:10024000023601360006F9D7019E0000000C4B5023
:10025000D8B471D0006E4F50D8B46DD0002604E3EE
:10026000810E002668E204D07F0E005E64E363E046
:100270004CC053F05050531A4C8E508E4E50520278
:10028000F4CF55F04D505102F4CF03F0F3CF54F0BA
:100290005202F3505526F4505422000E03224E50C1
:1002A0005102F3505526F4505422000E026A0322E4
:1002B00002224C505202F3505426F4500322000EF6
:1002C00002224C505102F3500326F4500222000E39
:1002D000016A01224E505002F3505426F45003227A
:1002E000000E022201224D505002F3500326F4501A
:1002F0000222000E01224C505002F3500226F4500C
:100300000122002A01BE05D05436033602360136DA
:100310000006000E54AE0AD0032A02220122015028
:1003200005E1025003E1035001E1002A53BE018EB2
:1003300053AE019E04D0006A016A026A036A00009B
:10034000000C642C01D003D0400E656E01D0656AAC
:10035000010E635C652665508009666E676A66C03B
:1003600068F01FDFD4EF01F062500C0A05E0060AC6
:100370000BE0020A0EE012D0676A010E686E11DF10
:10038000020E636ECCDE10D0010E636E020E646E40
:10039000D8D7676A100E686E04DF06D0010E676E4C
:1003A00062C068F0FEDE00D0000C54C05DF055C0A5
:1003B0005EF05F6A51AE02D05D8C5E06518E505089
:1003C000D8B49BD07F0E505C55E3506E606A040E2B
:1003D000616ED8905336523651365F36612EF9D75A
:1003E000040E505C08E2030E505CD8A47CD00A0EC8
:1003F0005F5CD8A078D0030E505E602A33D9D890C5
:100400005336523651365F3618D9020E616ED89087
:100410005F32513252325332612EF9D723D9040E52
:10042000616ED8905432553256325732612EF9D718
:1004300004D918D956C057F055C056F054C055F0DD
:10044000546AFBD80FD955C057F054C056F0546ABF
:10045000556AF3D85FB6C4D7505205E1532A522AE1
:10046000512A5F2A40D0D8905336523651365F36E3
:100470005006B6D7501E502A7F0E5026606A040ED2
:10048000616ED8905336523651365F36612EF9D7A9
:10049000040E5026050E505C32E3E4D8D890533653
:1004A000523651365F36D8905336523651365F3613
:1004B000C4D8D8905336523651365F36602A030E70
:1004C000616ED8905F32513252325332612EF9D779
:1004D000030E505E5FA8DED7D8905F3251325232A1
:1004E00053325006D7D7501E502A030E502660288C
:1004F0005E5ED8A05E6A010E03D0020E01D0000E2F
:10050000596E5DBE09D05EBE07D05E5205E0200E7A
:10051000626E2ADF5E2EFBD75DAC03D02D0E626EBD
:1005200023DF5DAE09D05EBE07D05E5205E0300E1F
:10053000626E1ADF5E2EF9D75D9E5D9C59A007D0D2
:1005400060C059F060C05BF05D285B2626D059A2E0
:1005500002D05D28606E5D52D8B46DD02E0E626EF2
:1005600003DF60C05CF05C065D505C5C02E35DC074
:100570005CF05C5205E0300E626EF6DE5C2EFBD75E
:1005800060C061F05D28615ED8B075D050065D280E
:100590005B6E60505B5E5BC059F05FC058F05050BE
:1005A00005E05A6ED89058325A2EFCD75B5043E083
:1005B000300E5824626ED8DE595005E15D523BE0A2
:1005C0002E0E626ED1DE59065B0635E0505005E016
:1005D0005A6ED89058365A2EFCD758505F5E5FC07E
:1005E00054F051C055F052C056F053C057F0D89057
:1005F0005336523651365F36D890533652365136CE
:100600005F365750532605E3522A03E1512A01E190
:100610005F2A5650522603E3512A01E15F2A5550C2
:100620005126D8B05F2A54505F26D89053365236A0
:1006300051365F36B2D700001ED05750532605E31F
:10064000522A03E1512A01E15F2A5650522603E360
:10065000512A01E15F2A55505126D8B05F2A5450E3
:100660005F26000C5FC054F051C055F052C056F0E8
:1006700053C057F0000C0000000CF86AD09E0D8E9D
:10068000EA6AE96AC180C182C184C196920E176E7E
:100690000F0E186E930E196E0F0E1A6E940E1B6EBF
:1006A0000F0E1C6E950E1D6E0F0E1E6E960E1F6E9B
:1006B0000F0E206E800E216E0F0E226E810E236EA5
:1006C0000F0E246E820E256E0F0E266E830E276E81
:1006D0000F0E286E840E296E0F0E2A6E890E2B6E59
:1006E0000F0E2C6E8A0E2D6E0F0E2E6E8B0E2F6E31
:1006F0000F0E306E8C0E316E0F0E326E8D0E336E0D
:100700000F0E346EC40E356E0F0E366EC30E376E7E
:100710000F0E386EC20E396E0F0E3A6EC10E3B6E62
:100720000F0E3C6EC00E3D6E0F0E3E6EF20E3F6E13
:100730000F0E406EF10E416E0F0E426EF00E436EC4
:100740000F0E446E9D0E456E0F0E466E810E476E67
:100750000F0E486E496A4A6A40D539C0E9FF3AC06F
:10076000EAFFC30EEF14EF6E39C0E9FF3AC0EAFFAB
:10077000EF8017C0E9FF18C0EAFF030EEF6E3DC01F
:10078000E9FF3EC0EAFFEF8E3DC0E9FF3EC0EAFF51
:10079000C70EEF142809EF6E3DC0E9FF3EC0EAFF27
:1007A000F80EEF140509EF6E45C0E9FF46C0EAFFF9
:1007B000EF8C3FC0E9FF40C0EAFFEF8C3FC0E9FF8C
:1007C00040C0EAFFEF8E39C0E9FF3AC0EAFFC30E2E
:1007D000EF14EF6E39C0E9FF3AC0EAFFEF824AC07A
:1007E0004CF049C04BF017DD03C04EF002C04DF095
:1007F00001C04CF000C04BF00A0E526E280E516E34
:10080000200E506E770E4F6E22DD00C04BF001C0FF
:100810004CF002C04DF003C04EF04F6A4F504ADC1E
:100820004F2A006E00C062F09FDD040E4F5CF6E1BF
:100830004EC053F04DC052F04CC051F04BC050F080
:10084000576A566A010E556E060E546EAEDD320EB4
:10085000636E65DC39C0E9FF3AC0EAFFC30EEF14EE
:100860000409EF6E39C0E9FF3AC0EAFFEF824AC0DF
:100870004CF049C04BF0CFDC03C04EF002C04DF04D
:1008800001C04CF000C04BF00A0E526E280E516EA3
:10089000200E506E770E4F6EDADC00C04BF001C0B8
:1008A0004CF002C04DF003C04EF04F6A4F5013DCC5
:1008B0004F2A006E00C062F057DD040E4F5CF6E177
:1008C0004EC053F04DC052F04CC051F04BC050F0F0
:1008D000576A566A010E556E060E546E66DD320E6C
:0808E000636E1DDC70D70300FC
:020000040030CA
:0E00000000220F0E000181000FC00FE00F4024
:00000001FF
;PIC18F452
