:020000040000FA
:100000003FEF01F0F76A140FF66E000EF7220900B9
:10001000F55012002C0F0106F76A280FF66E000E3D
:10002000F7220900F55012000C48656C6C6F200A2D
:100030003A290000EA6A3B0EE96EEF500DE0400EEF
:10004000016E006A002EFED7012EFBD7D90E006E7E
:10005000002EFED7EF2EF3D7000C4238F00B006EC7
:100060000F0E83140010836E00008380210E006E3B
:10007000002EFED78390000CF00E956E8384000056
:100080008380000083380F0B426E839000008380D2
:10009000100E006E002EFED7000083380F0B416E4D
:1000A0008390000E956E4238006EF00E00160050E0
:1000B0004110016E5EEF00F08392DED701C041F087
:1000C00001BEFBD73FA083923FB0838200008394A0
:1000D000000083904038416E0F0E411641C042F03F
:1000E000BCDF40500F0B416E41C042F0B6DF000C48
:1000F000000E956E2D0E3B6E9DDF83928394839050
:10010000020E426EAADF396A395003080DE3036A12
:10011000395078DF3A6E3F6A3AC040F0CDDF050EC5
:100120003B6E88DF392AF0D7AFEF01F03C2C01D0CD
:1001300003D0400E3D6E01D03D6A010E3B5C3D2672
:100140003D5080093E6E3F6A3EC040F0B5DFC9EFCA
:1001500000F03A500C0A05E0060A0BE0020A0EE035
:1001600012D03F6A010E406EA7DF020E3B6E62DFC7
:1001700010D0010E3B6E020E3C6ED8D73F6A100EB7
:10018000406E9ADF06D0010E3F6E3AC040F094DF19
:1001900000D0000C400E396E35C0E9FF36C0EAFFD2
:1001A000F80EEF140309EF6E35C0E9FF36C0EAFF21
:1001B000EFCF00F000380F0B0E0A07E0030A08E04B
:1001C000060A09E00C0A0AE00CD0310E396E09D09B
:1001D000340E396E06D0370E396E03D02A0E396EC2
:1001E00000D035C0E9FF36C0EAFFF80EEF1405096C
:1001F000EF6E35C0E9FF36C0EAFFEFCF00F0003800
:100200000F0B0E0A07E0030A08E0060A09E00C0AD1
:100210000AE00CD0320E396E09D0350E396E06D098
:10022000380E396E03D0300E396E00D035C0E9FF7C
:1002300036C0EAFFF80EEF140609EF6E35C0E9FF8D
:1002400036C0EAFFEFCF00F000380F0B0E0A07E0D0
:10025000030A08E0060A09E00C0A0AE00CD0330E93
:10026000396E09D0360E396E06D0390E396E03D08C
:10027000230E396E00D039C001F0BBEF01F0F86AEF
:10028000D09EEA6AE96AC180C182C184C196920E99
:10029000056E0F0E066E930E076E0F0E086E940E0F
:1002A000096E0F0E0A6E950E0B6E0F0E0C6E960EEB
:1002B0000D6E0F0E0E6E800E0F6E0F0E106E810EF5
:1002C000116E0F0E126E820E136E0F0E146E830ED1
:1002D000156E0F0E166E840E176E0F0E186E890EA9
:1002E000196E0F0E1A6E8A0E1B6E0F0E1C6E8B0E81
:1002F0001D6E0F0E1E6E8C0E1F6E0F0E206E8D0E5D
:10030000216E0F0E226EC40E236E0F0E246EC30ECE
:10031000256E0F0E266EC20E276E0F0E286EC10EB2
:10032000296E0F0E2A6EC00E2B6E0F0E2C6EF20E63
:100330002D6E0F0E2E6EF10E2F6E0F0E306EF00E14
:10034000316E0F0E326E9D0E336E0F0E346E810EB7
:10035000356E0F0E366E400E376E386AC9D6396A62
:1003600039505ADE392A006E00C03AF0F2DE0A0E29
:10037000395CF6E10FD701C037F03750400809E08B
:100380000C0E3A6EE6DE200E3A6EE3DE37C03AF02F
:0C039000E0DE0A0E3B6E4EDEEDD70300EF
:020000040030CA
:0E00000000220F0E000181000FC00FE00F4024
:00000001FF
;PIC18F452
