:020000040000FA
:0400000090EF04F089
:08000800056ED8CF06F0E950A7
:10001000076EEA50086EE150096EE2500A6ED95040
:100020000B6EDA500C6EF350146EF450156EE050F7
:100030000D6E000100500F6E0150106E0250116ED7
:100040000350126E0450136E9DAC2AEF00F09EBC5C
:100050002BEF02F00F50006E1050016E1150026E27
:100060001250036E1350046E0D50E06E0D8E07504B
:10007000E96E0850EA6E0950E16E0A50E26E0B50CC
:10008000D96E0C50DA6E1450F36E1550F46E0550A4
:1000900006C0D8FF1000F2CF0EF0F29EF76AB00F44
:1000A000F66E000EF7220900F5500EBEF28E120019
:1000B0002C0F01068E0E006E5CC001F05BC002F0DA
:1000C000036A015209E102C001F0026A080E005EF3
:1000D000015202E1006A08D0D89001BE04D0023675
:1000E00001360006F9D7019E00003BEF02F05B509D
:1000F000D8B471D0006E5F50D8B46DD0002604E340
:10010000810E002668E204D07F0E005E64E363E0A7
:100110005CC063F06050631A5C8E608E5E50620259
:10012000F4CF65F05D506102F4CF03F0F3CF64F0DB
:100130006202F3506526F4506422000E03225E50E2
:100140006102F3506526F4506422000E026A032215
:1001500002225C506202F3506426F4500322000E27
:1001600002225C506102F3500326F4500222000E7A
:10017000016A01225E506002F3506426F4500322AB
:10018000000E022201225D506002F3500326F4505B
:100190000222000E01225C506002F3500226F4504D
:1001A0000122002A01BE05D064360336023601362C
:1001B0000006000E64AE0AD0032A0222012201507A
:1001C00005E1025003E1035001E1002A63BE018E04
:1001D00063AE019E04D0006A016A026A036A0000ED
:1001E0004CEF02F0800ED8B2661A6B6A6C6A62C07D
:1001F0006AF066506A1A6150D8B4DED0696E69C080
:1002000000F06550D8B4E1D0695ED8B482D001E284
:100210003DD066C06FF06F8E67C06EF068C06DF045
:100220006C6AD8906F326E326D326C32692EF8D7AC
:100230006AAE03D06B80DDD06B9069906B88EA6A00
:10024000640EE96EE9D06B986ABE0AD069A013D03B
:100250006F326E326D326C32002AD8B4C5D00BD0FA
:100260006FBE0CD0D8906C366D366E366F36000689
:10027000D8B4BAD0F5D76B8C6BD06B9C62C06AF0E7
:1002800062AE02D06F8EA9D06F9EA7D065C069F014
:1002900065C000F06150695E62C06FF06F8E63C030
:1002A0006EF064C06DF06C6AD8906F326E326D3251
:1002B0006C32692EF8D76AAE03D06B829AD06B92FB
:1002C00069906B8AEA6A680EE96EA6D06B9A6ABE7C
:1002D0000AD069A013D06F326E326D326C32002AB0
:1002E000D8B482D00BD06FBE0CD0D8906C366D369F
:1002F0006E366F360006D8B477D0F5D76B8E28D01F
:100300006B9E66C06AF066AE02D06F8E66D06F9E3E
:1003100064D066C06FF06F8E67C06EF068C06DF01D
:100320006AAE04D06F9E6B8464D06B946C6A6990E3
:10033000EA6A640EE96E70D06ABE1CD062C06AF0D0
:1003400069A006D06F326E326D326C32002A4CE0FA
:100350006CAE0BD06D2A09E16E2A07E16F2A05E128
:100360006F326E326D32002A3FE06BBC86D76BBEB7
:10037000C7D71CD0800E6F1A6FAE04D03AD066C0BB
:100380006AF00AD062C06AF06F5206E16E5204E170
:100390006D5202E1006A21D06FBE08D0D8906C3651
:1003A0006D366E366F36002EF7D71ED06AAE02D08D
:1003B0006F8E13D06F9E11D065C000F066C06FF0D5
:1003C00067C06EF068C06DF008D061C000F062C018
:1003D0006FF063C06EF064C06DF06FC001F06EC06E
:1003E00002F06DC003F034D0006A016A026A036A49
:1003F0002FD06C6A6D1E6E1E6F1E6C1E6C2A05E17E
:100400006D2A03E16E2A01E16F2A6BB015D76BB23A
:1004100056D76BB48AD7B3D7EF506D2605E36E2A53
:1004200003E16F2AD8B46980ED52EF506E2603E3E2
:100430006F2AD8B46980ED52EF50EFBE01D0800A28
:100440006F26D8B069806BB8FED66BBA3FD774D729
:10045000000068EF02F026C003F025C0E9FF26C0C7
:10046000EAFFECCF5AF0ED52EFCF59F05AC05CF0F2
:1004700059C05BF01FD603C05EF002C05DF001C042
:100480005CF000C05BF038C062F037C061F036C08D
:1004900060F035C05FF02BD600C05BF001C05CF0AF
:1004A00002C05DF003C05EF0EACF60F0E9CF5FF01C
:1004B000D88203C064F002C063F001C062F000C0E3
:1004C00061F0686A676A400E666E800E656E8AD655
:1004D00060C0EAFF5FC0E9FF03C03CF002C03BF030
:1004E00001C03AF000C039F09E9C2AEF00F0EA6AA1
:1004F000500EE96EEF500DE0400E016E006A002EC6
:10050000FED7012EFBD7D90E006E002EFED7EF2EA0
:10051000F3D7000C5738F00B006E0F0E8314001049
:10052000836E00008380210E006E002EFED7839024
:10053000000CF00E956E83840000838000008338E9
:100540000F0B576E839000008380100E006E002EFC
:10055000FED7000083380F0B566E8390000E956E09
:100560005738006EF00E001600505610016EBBEFAB
:1005700002F08392DED701C056F001BEFBD754A033
:10058000839254B083820000839400008390553896
:10059000566E0F0E561656C057F0BCDF55500F0B57
:1005A000566E56C057F0B6DF000C000E956E2D0E3D
:1005B000506E9DDF839283948390020E576EAADF64
:1005C0003D6A3D5003080DE3036A3D5064DD3E6E15
:1005D000546A3EC055F0CDDF050E506E88DF3D2ACF
:1005E000F0D7E2EF04F0512C01D003D0400E526E50
:1005F00001D0526A010E505C522652508009536E4F
:10060000546A53C055F0B5DF26EF03F04F500C0A83
:1006100005E0060A0BE0020A0EE012D0546A010E51
:10062000556EA7DF020E506E62DF10D0010E506EC5
:10063000020E516ED8D7546A100E556E9ADF06D04E
:10064000010E546E4FC055F094DF00D0000C41C035
:100650004AF042C04BF04C6A3EAE02D04A8C4B0688
:100660003E8E3D50D8B49BD07F0E3D5C55E33D6E31
:100670004D6A040E4E6ED89040363F363E364C36AC
:100680004E2EF9D7040E3D5C08E2030E3D5CD8A463
:100690007CD00A0E4C5CD8A078D0030E3D5E4D2A6B
:1006A00033D9D89040363F363E364C3618D9020EF4
:1006B0004E6ED8904C323E323F3240324E2EF9D7F9
:1006C00023D9040E4E6ED890413242324332443226
:1006D0004E2EF9D704D918D943C044F042C043F094
:1006E00041C042F0416AFBD80FD942C044F041C03A
:1006F00043F0416A426AF3D84CB6C4D73D5205E193
:10070000402A3F2A3E2A4C2A40D0D89040363F36D5
:100710003E364C363D06B6D73D1E3D2A7F0E3D2661
:100720004D6A040E4E6ED89040363F363E364C36FB
:100730004E2EF9D7040E3D26050E3D5C32E3E4D87B
:10074000D89040363F363E364C36D89040363F360D
:100750003E364C36C4D8D89040363F363E364C36BE
:100760004D2A030E4E6ED8904C323E323F3240320C
:100770004E2EF9D7030E3D5E4CA8DED7D8904C32F2
:100780003E323F3240323D06D7D73D1E3D2A030E52
:100790003D264D284B5ED8A04B6A010E03D0020EB9
:1007A00001D0000E466E4ABE09D04BBE07D04B5258
:1007B00005E0200E4F6E2ADF4B2EFBD74AAC03D04C
:1007C0002D0E4F6E23DF4AAE09D04BBE07D04B52E1
:1007D00005E0300E4F6E1ADF4B2EF9D74A9E4A9C29
:1007E00046A007D04DC046F04DC048F04A284826E4
:1007F00026D046A202D04A284D6E4A52D8B46DD0B7
:100800002E0E4F6E03DF4DC049F049064A50495C39
:1008100002E34AC049F0495205E0300E4F6EF6DE61
:10082000492EFBD74DC04EF04A284E5ED8B075D049
:100830003D064A28486E4D50485E48C046F04CC0C0
:1008400045F03D5005E0476ED8904532472EFCD725
:10085000485043E0300E45244F6ED8DE465005E147
:100860004A523BE02E0E4F6ED1DE4606480635E07A
:100870003D5005E0476ED8904536472EFCD7455091
:100880004C5E4CC041F03EC042F03FC043F040C01F
:1008900044F0D89040363F363E364C36D8904036FD
:1008A0003F363E364C364450402605E33F2A03E1AE
:1008B0003E2A01E14C2A43503F2603E33E2A01E150
:1008C0004C2A42503E26D8B04C2A41504C26D89053
:1008D00040363F363E364C36B2D700001ED044502C
:1008E000402605E33F2A03E13E2A01E14C2A43501A
:1008F0003F2603E33E2A01E14C2A42503E26D8B06F
:100900004C2A41504C26000C4CC041F03EC042F0F5
:100910003FC043F040C044F0000C00002FEF05F052
:10092000F86AD09E0D8EEA6AE96AC150C00B0309CD
:10093000C16E070EB46EB450A19C920E176E0F0ECE
:10094000186E930E196E0F0E1A6E940E1B6E0F0E0C
:100950001C6E800E1D6E0F0E1E6E810E1F6E0F0E12
:10096000206E820E216E0F0E226EC40E236E0F0EAD
:10097000246EC30E256E0F0E266EC20E276E0F0E4E
:10098000286EC10E296E0F0E2A6EC00E2B6E0F0E32
:100990002C6EF20E2D6E0F0E2E6EF10E2F6E0F0EB0
:1009A000306EF00E316E0F0E326EF20E336E0F0E91
:1009B000346E770E356E200E366E280E376E0A0EA8
:1009C000386EF3D527C0E9FF28C0EAFFEF8027C0C3
:1009D000E9FF28C0EAFFC30EEF14EF6E29C0E9FF5C
:1009E0002AC0EAFFF00EEF140809EF6E17C0E9FF06
:1009F00018C0EAFF010EEF6E2BC0E9FF2CC0EAFF22
:100A0000EF8E29C0E9FF2AC0EAFFEF8829C0E9FF7D
:100A10002AC0EAFFEF8A33C0E9FF34C0EAFFEF8C57
:100A20002DC0E9FF2EC0EAFFEF8E2DC0E9FF2EC0DA
:100A3000EAFFEF8C0C0E4F6EE9DD200E4F6EE6DD07
:100A40003CC040F03BC03FF03AC03EF039C03DF002
:100A5000446A436A010E426E060E416EF8D5560E88
:100A60004F6ED4DD27C0E9FF28C0EAFFEF82020EF7
:100A70003D6E960E506E3BDD3D2EFBD7DBD703005F
:020000040030CA
:0E00000000C20F1E008781000FC00FE00F40EE
:00000001FF
;PIC18F4520
