:020000040000FA
:10000000C9EF02F0F76A140FF66E000EF72209002E
:10001000F55012002C0F0106F76A280FF66E000E3D
:10002000F7220900F55012000C206C63645F300069
:10003000EA6A3F0EE96EEF500DE0400E016E006A75
:10004000002EFED7012EFBD7D90E006E002EFED754
:10005000EF2EF3D7000C4638F00B006E0F0E831412
:100060000010836E00008380210E006E002EFED7EC
:100070008390000CF00E956E838400008380000056
:1000800083380F0B466E839000008380100E006E45
:10009000002EFED7000083380F0B456E8390000EB4
:1000A000956E4638006EF00E001600504510016E39
:1000B0005CEF00F08392DED701C045F001BEFBD7B4
:1000C00043A0839243B08382000083940000839016
:1000D0004438456E0F0E451645C046F0BCDF44500F
:1000E0000F0B456E45C046F0B6DF000C000E956E56
:1000F0002D0E3F6E9DDF839283948390020E466E99
:10010000AADF276A275003080DE3036A27507ADF26
:10011000286E436A28C044F0CDDF050E3F6E88DFAD
:10012000272AF0D71AEF03F0402C01D003D0400E5D
:10013000416E01D0416A010E3F5C41264150800969
:10014000426E436A42C044F0B5DFC7EF00F03E5054
:100150000C0A05E0060A0BE0020A0EE012D0436A20
:10016000010E446EA7DF020E3F6E62DF10D0010E5B
:100170003F6E020E406ED8D7436A100E446E9ADF6F
:1001800006D0010E436E3EC044F094DF00D0000C58
:100190008E0E006E29C001F028C002F0036A0152E1
:1001A00009E102C001F0026A080E005E015202E19C
:1001B000006A08D0D89001BE04D00236013600068D
:1001C000F9D7019E000060EF03F02850D8B471D039
:1001D000006E2C50D8B46DD0002604E3810E0026AA
:1001E00068E204D07F0E005E64E363E029C030F073
:1001F0002D50301A298E2D8E2B502F02F4CF32F035
:100200002A502E02F4CF03F0F3CF31F02F02F35037
:100210003226F4503122000E03222B502E02F350CE
:100220003226F4503122000E026A032202222950A3
:100230002F02F3503126F4500322000E02222950DF
:100240002E02F3500326F4500222000E016A01220E
:100250002B502D02F3503126F4500322000E0222BF
:1002600001222A502D02F3500326F4500222000EE0
:10027000012229502D02F3500226F4500122002AB7
:1002800001BE05D031360336023601360006000EB7
:1002900031AE0AD0032A02220122015005E10250A8
:1002A00003E1035001E1002A30BE018E30AE019E11
:1002B00004D0006A016A026A036A000071EF03F069
:1002C00030C039F031C03AF03B6A2DAE02D0398CE3
:1002D0003A062D8E2C50D8B49BD07F0E2C5C55E363
:1002E0002C6E3C6A040E3D6ED8902F362E362D367D
:1002F0003B363D2EF9D7040E2C5C08E2030E2C5C35
:10030000D8A47CD00A0E3B5CD8A078D0030E2C5E1B
:100310003C2A33D9D8902F362E362D363B3618D975
:10032000020E3D6ED8903B322D322E322F323D2EB2
:10033000F9D723D9040E3D6ED890303231323232A3
:1003400033323D2EF9D704D918D932C033F031C039
:1003500032F030C031F0306AFBD80FD931C033F001
:1003600030C032F0306A316AF3D83BB6C4D72C5271
:1003700005E12F2A2E2A2D2A3B2A40D0D8902F364D
:100380002E362D363B362C06B6D72C1E2C2A7F0E49
:100390002C263C6A040E3D6ED8902F362E362D3614
:1003A0003B363D2EF9D7040E2C26050E2C5C32E38D
:1003B000E4D8D8902F362E362D363B36D8902F36AF
:1003C0002E362D363B36C4D8D8902F362E362D36C5
:1003D0003B363C2A030E3D6ED8903B322D322E32F6
:1003E0002F323D2EF9D7030E2C5E3BA8DED7D890D6
:1003F0003B322D322E322F322C06D7D72C1E2C2AF0
:10040000030E2C263C283A5ED8A03A6A010E03D08F
:10041000020E01D0000E356E39BE09D03ABE07D0AB
:100420003A5205E0200E3E6E92DE3A2EFBD739ACF2
:1004300003D02D0E3E6E8BDE39AE09D03ABE07D00A
:100440003A5205E0300E3E6E82DE3A2EF9D7399EE2
:10045000399C35A007D03CC035F03CC037F0392876
:10046000372626D035A202D039283C6E3952D8B46E
:100470006DD02E0E3E6E6BDE3CC038F03806395023
:10048000385C02E339C038F0385205E0300E3E6E79
:100490005EDE382EFBD73CC03DF039283D5ED8B03B
:1004A00075D02C063928376E3C50375E37C035F092
:1004B0003BC034F02C5005E0366ED8903432362EE6
:1004C000FCD7375043E0300E34243E6E40DE3550CA
:1004D00005E139523BE02E0E3E6E39DE3506370619
:1004E00035E02C5005E0366ED8903436362EFCD7E9
:1004F00034503B5E3BC030F02DC031F02EC032F0A6
:100500002FC033F0D8902F362E362D363B36D8906C
:100510002F362E362D363B3633502F2605E32E2A26
:1005200003E12D2A01E13B2A32502E2603E32D2A36
:1005300001E13B2A31502D26D8B03B2A30503B26D2
:10054000D8902F362E362D363B36B2D700001ED02F
:1005500033502F2605E32E2A03E12D2A01E13B2A01
:1005600032502E2603E32D2A01E13B2A31502D265D
:10057000D8B03B2A30503B26000C3BC030F02DC099
:1005800031F02EC032F02FC033F0000C00008EEF9F
:1005900003F0F86AD09EEA6AE96AC150C00B030909
:1005A000C16E070EB46EB450A19C920E056E0F0E74
:1005B000066E930E076E0F0E086E940E096E0F0EE8
:1005C0000A6E800E0B6E0F0E0C6E810E0D6E0F0EEE
:1005D0000E6E820E0F6E0F0E106EC40E116E0F0E89
:1005E000126EC30E136E0F0E146EC20E156E0F0E2A
:1005F000166EC10E176E0F0E186EC00E196E0F0E0E
:100600001A6EF20E1B6E0F0E1C6EF10E1D6E0F0E8B
:100610001E6EF00E1F6E0F0E206EF20E216E0F0E6C
:10062000226E770E236E200E246E280E256E0A0E83
:10063000266E5CD515C0E9FF16C0EAFFEF8015C035
:10064000E9FF16C0EAFFC30EEF140409EF6E17C0EE
:10065000E9FF18C0EAFFF00EEF140809EF6E05C0BD
:10066000E9FF06C0EAFF010EEF6E19C0E9FF1AC0EC
:10067000EAFFEF8E15C0E9FF16C0EAFFEF8215C052
:10068000E9FF16C0EAFFEFA201D0F9D7276A275089
:10069000C3DC272A006E00C03EF059DD070E275C40
:1006A000F6E113C0E9FF14C0EAFFECCF03F0ED520E
:1006B000EFCFE9FF03C0EAFF296AEFCF28F068D542
:1006C00003C02BF002C02AF001C029F000C028F0BE
:1006D00026C02FF025C02EF024C02DF023C02CF012
:1006E00074D500C028F001C029F002C02AF003C070
:1006F0002BF00A0E3E6E2BDD200E3E6E28DD2BC049
:100700002FF02AC02EF029C02DF028C02CF0336A1B
:10071000326A010E316E060E306ED2D5020E276E91
:0E072000960E3F6E85DC272EFBD7A4D7030074
:020000040030CA
:0E00000000C20F1E008781000FC00FE00F40EE
:00000001FF
;PIC18F4520
