:020000040000FA
:1000000015EF00F0EA6A3B0EE96EEF500DE0400E8E
:10001000016E006A002EFED7012EFBD7D90E006EAE
:10002000002EFED7EF2EF3D7000CF86AD09EEA6AB6
:10003000E96AC180C182C184C196920E056E0F0E1D
:10004000066E930E076E0F0E086E940E096E0F0E5D
:100050000A6E950E0B6E0F0E0C6E960E0D6E0F0E39
:100060000E6E800E0F6E0F0E106E810E116E0F0E43
:10007000126E820E136E0F0E146E830E156E0F0E1F
:10008000166E840E176E0F0E186E890E196E0F0EF7
:100090001A6E8A0E1B6E0F0E1C6E8B0E1D6E0F0ECF
:1000A0001E6E8C0E1F6E0F0E206E8D0E216E0F0EAB
:1000B000226EC40E236E0F0E246EC30E256E0F0E1D
:1000C000266EC20E276E0F0E286EC10E296E0F0E01
:1000D0002A6EC00E2B6E0F0E2C6EF20E2D6E0F0EB2
:1000E0002E6EF10E2F6E0F0E306EF00E316E0F0E63
:1000F000326E9D0E336E0F0E346E810E356E0F0E06
:10010000366E29C0E9FF2AC0EAFFF00EEF140F098E
:10011000EF6E09C0E9FF0AC0EAFF800EEF6E13C060
:10012000E9FF14C0EAFFEF50010AEF6E14C003F0BC
:1001300013C0E9FF14C0EAFFEFAE04D0FA0E3B6E25
:1001400061DF07D0020E3A6EFA0E3B6E5BDF3A2E8D
:06015000FBD7E5D7030018
:020000040030CA
:0E00000000220F0E000181000FC00FE00F4024
:00000001FF
;PIC18F452
