:020000040000FA
:1000000035EF01F0F76A140FF66E000EF7220900C3
:10001000F55012002C0F0106EA6A390EE96EEF5016
:100020000DE0400E016E006A002EFED7012EFBD7B8
:10003000D90E006E002EFED7EF2EF3D7000C4038FD
:10004000F00B006E0F0E83140010836E000083808F
:10005000210E006E002EFED78390000CF00E956EE0
:1000600083840000838000008350006E00380F0BF3
:10007000406E839000008380100E006E002EFED72D
:1000800000008350006E00380F0B3F6E8390000E0F
:10009000956E4038006EF00E001600503F10016E55
:1000A00054EF00F08392DAD701C03FF001BEFBD7D6
:1000B0003DA083923DB08382000083940000839032
:1000C0003E383F6E0F0E3F163FC040F0B8DF3E5047
:1000D0000F0B3F6E3FC040F0B2DF000C000E956E7C
:1000E0002D0E396E99DF839283948390020E406EB9
:1000F000A6DF386A385003080DE3036A385082DF00
:10010000396E3D6A39C03EF0CDDF050E396E84DFB1
:10011000382AF0D7A2EF01F0400E386E3550E96E64
:100120003650EA6EF80EEF140309EF6E3550E96EA3
:100130003650EA6EEF50006E00380F0B0E0A07E0E3
:10014000030A08E0060A09E00C0A0AE00CD0310EA6
:10015000386E09D0340E386E06D0370E386E03D0A4
:100160002A0E386E00D03550E96E3650EA6EF80E21
:10017000EF140509EF6E3550E96E3650EA6EEF5018
:10018000006E00380F0B0E0A07E0030A08E0060AAB
:1001900009E00C0A0AE00CD0320E386E09D0350E98
:1001A000386E06D0380E386E03D0300E386E00D060
:1001B0003550E96E3650EA6EF80EEF140609EF6E10
:1001C0003550E96E3650EA6EEF50006E00380F0B76
:1001D0000E0A07E0030A08E0060A09E00C0A0AE032
:1001E0000CD0330E386E09D0360E386E06D0390E6C
:1001F000386E03D0230E386E00D03850016EBBEF3E
:1002000001F03A2C01D003D0400E3B6E01D03B6A86
:10021000010E395C3B263B5080093C6E3D6A3CC078
:100220003EF040DF34EF01F038500C0A05E0060ADA
:100230000BE0020A0EE012D03D6A010E3E6E32DF84
:10024000020E396EE9DE10D0010E396E020E3A6EE2
:10025000D8D73D6A100E3E6E25DF06D0010E3D6EEA
:1002600038C03EF01FDF00D0000CF86AD09EEA6A6A
:10027000E96AC180C182C184C186920E056E0F0EEB
:10028000066E930E076E0F0E086E940E096E0F0E1B
:100290000A6E950E0B6E0F0E0C6E960E0D6E0F0EF7
:1002A0000E6E800E0F6E0F0E106E810E116E0F0E01
:1002B000126E820E136E0F0E146E830E156E0F0EDD
:1002C000166E840E176E0F0E186E890E196E0F0EB5
:1002D0001A6E8A0E1B6E0F0E1C6E8B0E1D6E0F0E8D
:1002E0001E6E8C0E1F6E0F0E206E8D0E216E0F0E69
:1002F000226EC40E236E0F0E246EC30E256E0F0EDB
:10030000266EC20E276E0F0E286EC10E296E0F0EBE
:100310002A6EC00E2B6E0F0E2C6EF20E2D6E0F0E6F
:100320002E6EF10E2F6E0F0E306EF00E316E0F0E20
:10033000326E9D0E336E0F0E346E810E356E0F0EC3
:10034000366ECCD60750E96E08C0EAFFF00EEF6EAD
:100350000950E96E0AC0EAFFEF6A2950E96E2A5097
:10036000EA6EF00EEF140F09EF6E2F50E96E305069
:10037000EA6EEF9ED1D601C037F03750400809E051
:100380000C0E386E51DF200E386E4EDF37C038F05D
:0C0390004BDF0A0E396E40DEEDD7030093
:020000040030CA
:0E00000000220F0E000181000FC00FE00F4024
:00000001FF
;PIC18F452
